{"abi":[{"type":"fallback","stateMutability":"payable"},{"type":"receive","stateMutability":"payable"},{"type":"function","name":"getPurchase","inputs":[{"name":"storeId","type":"uint256","internalType":"uint256"},{"name":"purchaseId","type":"uint256","internalType":"uint256"}],"outputs":[{"name":"productName","type":"string","internalType":"string"},{"name":"username","type":"string","internalType":"string"},{"name":"userId","type":"uint256","internalType":"uint256"},{"name":"timestamp","type":"uint256","internalType":"uint256"},{"name":"amount","type":"uint256","internalType":"uint256"},{"name":"wallet","type":"address","internalType":"address"}],"stateMutability":"view"},{"type":"function","name":"getStorePurchaseCount","inputs":[{"name":"storeId","type":"uint256","internalType":"uint256"}],"outputs":[{"name":"","type":"uint256","internalType":"uint256"}],"stateMutability":"view"},{"type":"function","name":"purchase","inputs":[{"name":"storeId","type":"uint256","internalType":"uint256"},{"name":"productName","type":"string","internalType":"string"},{"name":"username","type":"string","internalType":"string"},{"name":"userId","type":"uint256","internalType":"uint256"},{"name":"wallet","type":"address","internalType":"address payable"}],"outputs":[],"stateMutability":"payable"},{"type":"function","name":"storeExists","inputs":[{"name":"storeId","type":"uint256","internalType":"uint256"}],"outputs":[{"name":"","type":"bool","internalType":"bool"}],"stateMutability":"view"},{"type":"function","name":"stores","inputs":[{"name":"","type":"uint256","internalType":"uint256"}],"outputs":[{"name":"purchaseCount","type":"uint256","internalType":"uint256"}],"stateMutability":"view"},{"type":"event","name":"PurchaseMade","inputs":[{"name":"storeId","type":"uint256","indexed":true,"internalType":"uint256"},{"name":"purchaseId","type":"uint256","indexed":true,"internalType":"uint256"},{"name":"productName","type":"string","indexed":false,"internalType":"string"},{"name":"username","type":"string","indexed":false,"internalType":"string"},{"name":"userId","type":"uint256","indexed":false,"internalType":"uint256"},{"name":"timestamp","type":"uint256","indexed":false,"internalType":"uint256"},{"name":"amount","type":"uint256","indexed":false,"internalType":"uint256"},{"name":"wallet","type":"address","indexed":false,"internalType":"address"}],"anonymous":false}],"bytecode":{"object":"0x608060405234801561000f575f80fd5b50610a078061001d5f395ff3fe60806040526004361061004d575f3560e01c80633bc701841461008b578063459b34b0146100c5578063697473ee1461010157806388d8565b14610116578063e8a59cd81461015657610073565b366100735760405162461bcd60e51b815260040161006a90610612565b60405180910390fd5b60405162461bcd60e51b815260040161006a90610612565b348015610096575f80fd5b506100aa6100a536600461066f565b610184565b6040516100bc969594939291906106d2565b60405180910390f35b3480156100d0575f80fd5b506100f36100df366004610725565b5f9081526020819052604090206001015490565b6040519081526020016100bc565b61011461010f3660046107d9565b6103ae565b005b348015610121575f80fd5b50610146610130366004610725565b5f90815260208190526040902060010154151590565b60405190151581526020016100bc565b348015610161575f80fd5b506100f3610170366004610725565b5f6020819052908152604090206001015481565b6060805f805f805f808981526020019081526020015f206001015487106101ed5760405162461bcd60e51b815260206004820152601760248201527f507572636861736520646f6573206e6f74206578697374000000000000000000604482015260640161006a565b5f888152602081815260408083208a8452909152808220815160c0810190925280548290829061021c9061086a565b80601f01602080910402602001604051908101604052809291908181526020018280546102489061086a565b80156102935780601f1061026a57610100808354040283529160200191610293565b820191905f5260205f20905b81548152906001019060200180831161027657829003601f168201915b505050505081526020016001820180546102ac9061086a565b80601f01602080910402602001604051908101604052809291908181526020018280546102d89061086a565b80156103235780601f106102fa57610100808354040283529160200191610323565b820191905f5260205f20905b81548152906001019060200180831161030657829003601f168201915b50505050508152602001600282015481526020016003820154815260200160048201548152602001600582015f9054906101000a90046001600160a01b03166001600160a01b03166001600160a01b0316815250509050805f015181602001518260400151836060015184608001518560a00151965096509650965096509650509295509295509295565b6001600160a01b0381166103fd5760405162461bcd60e51b8152602060048201526016602482015275496e76616c69642077616c6c6574206164647265737360501b604482015260640161006a565b5f341161044c5760405162461bcd60e51b815260206004820152601b60248201527f4d7573742073656e642045544820776974682070757263686173650000000000604482015260640161006a565b5f858152602081815260408083206001810154825160c0810184528981528085018990528084018890524260608201523460808201526001600160a01b03871660a0820152818652919093529220825191929182919081906104ae90826108f0565b50602082015160018201906104c390826108f0565b5060408201516002820155606082015160038201556080820151600482015560a090910151600590910180546001600160a01b0319166001600160a01b039092169190911790556105158260016109ac565b5f888152602081905260408082206001019290925590516001600160a01b0385169034908381818185875af1925050503d805f811461056f576040519150601f19603f3d011682016040523d82523d5f602084013e610574565b606091505b50509050806105c55760405162461bcd60e51b815260206004820152601f60248201527f4661696c656420746f20666f72776172642045544820746f2077616c6c657400604482015260640161006a565b82887f22cc38159b703e9e9007cbce763633d7ed8af84f2084f1a76561b35ef1745d9b89898942348b604051610600969594939291906106d2565b60405180910390a35050505050505050565b60208082526038908201527f44697265637420455448207472616e7366657273206e6f7420616c6c6f77656460408201527f2e205573652070757263686173652066756e6374696f6e2e0000000000000000606082015260800190565b5f8060408385031215610680575f80fd5b50508035926020909101359150565b5f81518084525f5b818110156106b357602081850181015186830182015201610697565b505f602082860101526020601f19601f83011685010191505092915050565b60c081525f6106e460c083018961068f565b82810360208401526106f6818961068f565b60408401979097525050606081019390935260808301919091526001600160a01b031660a09091015292915050565b5f60208284031215610735575f80fd5b5035919050565b634e487b7160e01b5f52604160045260245ffd5b5f82601f83011261075f575f80fd5b813567ffffffffffffffff8082111561077a5761077a61073c565b604051601f8301601f19908116603f011681019082821181831017156107a2576107a261073c565b816040528381528660208588010111156107ba575f80fd5b836020870160208301375f602085830101528094505050505092915050565b5f805f805f60a086880312156107ed575f80fd5b85359450602086013567ffffffffffffffff8082111561080b575f80fd5b61081789838a01610750565b9550604088013591508082111561082c575f80fd5b5061083988828901610750565b9350506060860135915060808601356001600160a01b038116811461085c575f80fd5b809150509295509295909350565b600181811c9082168061087e57607f821691505b60208210810361089c57634e487b7160e01b5f52602260045260245ffd5b50919050565b601f8211156108eb575f81815260208120601f850160051c810160208610156108c85750805b601f850160051c820191505b818110156108e7578281556001016108d4565b5050505b505050565b815167ffffffffffffffff81111561090a5761090a61073c565b61091e81610918845461086a565b846108a2565b602080601f831160018114610951575f841561093a5750858301515b5f19600386901b1c1916600185901b1785556108e7565b5f85815260208120601f198616915b8281101561097f57888601518255948401946001909101908401610960565b508582101561099c57878501515f19600388901b60f8161c191681555b5050505050600190811b01905550565b808201808211156109cb57634e487b7160e01b5f52601160045260245ffd5b9291505056fea264697066735822122084cc27398cfd1bf35eafe8dbc4200017dc8aab44fe994a1d8d1e93df5fa294fc64736f6c63430008140033","linkReferences":{}},"methodIdentifiers":{"getPurchase(uint256,uint256)":"3bc70184","getStorePurchaseCount(uint256)":"459b34b0","purchase(uint256,string,string,uint256,address)":"697473ee","storeExists(uint256)":"88d8565b","stores(uint256)":"e8a59cd8"},"id":20}